:020000040000FA
:04000000FBEF02F020
:0400080004EF08F009
:040018000CEF08F0F1
:06002A00D9CFE5FFE1CF94
:10003000D9FF00C0E5FF01C0E5FF02C0E5FF03C036
:10004000E5FF04C0E5FF05C0E5FF06C0E5FF07C00A
:10005000E5FF08C0E5FF09C0E5FF0AC0E5FF0BC0EA
:10006000E5FF020EDBCF00F0100E005CD8A021D11E
:10007000170E005CD8B01DD1F00E0026FA6AFB6A9C
:100080000034FA36E834FA36FC0B9A0FE56E000EAF
:10009000FA22000EFB22E450F96E5BEF00F06BEFEA
:1000A00000F027EF01F071EF00F099EF00F03CEF66
:1000B00001F051EF01F0100EE56EC4EC03F0E652D2
:1000C000000EE56E070EE56EC60EE56EA3EC02F0BF
:1000D000030EE12604D1120EE56EC4EC03F0E652E5
:1000E000FED0006A100E016E026A036A0350E56ECC
:1000F0000250E56E0150E56E0050E56E8BEC03F0AA
:10010000040EE126400E0026000E012202220322E8
:10011000035C08E1010E025C05E1000E015C02E1F6
:10012000000E005CE3E3120EE56EC4EC03F0E65251
:10013000D6D07F0EE56EFF0EE5684AEC03F0E6527E
:10014000E652076E046A056A066A7F0EE56EFF0EC8
:10015000E5684AEC03F0E652E6520B6A0A6E086A5A
:100160000850041205120A5006120B5007127F0E97
:10017000E56EFF0EE5684AEC03F0E652E6520A6AC5
:10018000096E086A08500412095005120A50061236
:1001900007127F0EE56EFF0EE5684AEC03F0E652AB
:1001A000E652016A026A036A04120150051206123D
:1001B0000712006A000E0024086E040E0120096E6A
:1001C0007F0EE56EFF0EE5684AEC03F00A6EE6521C
:1001D000E65208C0E9FF09C0EAFF0AC0EFFF002AA3
:1001E00004E3012A02E3024A032A000E035C08E149
:1001F000000E025C05E1000E015C02E1400E005CB5
:10020000D9E30750E56E0650E56E0550E56E0450E3
:10021000E56E8BEC03F0040EE126400EE56E800ED9
:10022000E56E040EE56E000EE56E0750E56E0650B5
:10023000E56E0550E56E0450E56E8AEC01F0080E9F
:10024000E126120EE56EC4EC03F0E65248D0120E21
:10025000E56EC4EC03F0E652000EE56AC4EC03F070
:10026000E652400EE56EC4EC03F0E652520EE56E27
:10027000C4EC03F0E65233D0150EE56EC4EC03F087
:10028000E652000EE56AC4EC03F0E6523F0EE56E5E
:10029000C4EC03F0E652540EE56EC4EC03F0E652F3
:1002A0001ED0120EE56EC4EC03F0E65208EC04F02A
:1002B00016D00401402B05E3412B03E3423F01D05C
:1002C000432B04014051FF0A07E141511F0A04E199
:1002D000425102E1435101E002D008EC04F0E4CFC6
:1002E0000BF0E4CF0AF0E4CF09F0E4CF08F0E4CF5C
:1002F00007F0E4CF06F0E4CF05F0E4CF04F0E4CF5C
:1003000003F0E4CF02F0E4CF01F0E4CF00F0E4CF5B
:10031000D9FF1200D9CFE5FFE1CFD9FF00C0E5FF3B
:1003200001C0E5FF02C0E5FF03C0E5FF04C0E5FF33
:1003300005C0E5FF06C0E5FF07C0E5FF08C0E5FF13
:1003400009C0E5FF0AC0E5FF0BC0E5FF020EDBCFE9
:1003500000F0030EDBCF01F0040EDBCF02F0050E40
:10036000DBCF03F0060EDBCF04F0070EDBCF05F08A
:10037000080EDBCF06F0090EDBCF07F0B79CC00EEE
:100380000014086E096A0A6A0B6A0850F66E01507A
:10039000086E0250096E03500A6E0B6A096A0A6AF7
:1003A0000B6A0850F76E0250006E0350016E026A2D
:1003B000036A016A026A036A0050F86E006A016A01
:1003C00007C002F0036A0150800FF36E0350800FE4
:1003D000F35C02E10250005C17E200500424026E5C
:1003E00001500520036EE86A01BEE8680620086E29
:1003F00002C0E9FF03C0F3FF0850E9EC03F0F56E1B
:100400000D00004A012ADCD70A00840E7F6EF29E9E
:10041000550E7E6EAA0E7E6E7F82F28EB7ACFED730
:10042000B79C7F94E4CF0BF0E4CF0AF0E4CF09F05F
:10043000E4CF08F0E4CF07F0E4CF06F0E4CF05F016
:10044000E4CF04F0E4CF03F0E4CF02F0E4CF01F016
:10045000E4CF00F0E4CFD9FF1200D38CD38AD38845
:10046000D3849B8C9390D8EC03F0006A016A026AF3
:10047000036A000E0024046E040E0120056E04C001
:10048000E9FF05C0EAFFEF68002A04E3012A02E35E
:10049000024A032A000E035C08E1000E025C05E13B
:1004A000000E015C02E1400E005CE3E30401406BDE
:1004B000416B426B436B00503F0A06E1015004E17F
:1004C000025002E1035001E008D08A80002A04E3D0
:1004D000012A02E3024A032A29D00050FF0A07E159
:1004E0000150010A04E1025002E1035001E008D08A
:1004F0008A90002A04E3012A02E3024A032A16D062
:100500000050FF0A07E10150090A04E1025002E12C
:10051000035001E005D0006A016A026A036A06D04E
:10052000002A04E3012A02E3024A032AE56AFF0ED5
:10053000E5684AEC03F0E652E652E56E15EC00F091
:10054000E652B9D71200D9CFE5FFE1CFD9FF00C0FD
:10055000E5FF01C0E5FF02C0E5FF03C0E5FF04C001
:10056000E5FF05C0E5FF06C0E5FF020EDBCF00F0AA
:10057000030EDBCF01F0040EDBCF02F0036A035061
:100580000024046EE86A0120056EE86A022004C0B7
:10059000E9FF05C0F3FFE9EC03F0046E045005E049
:1005A0000450E56EC4EC03F0E65203C004F0032AE5
:1005B000056A066A005004260150052202500622F0
:1005C00004C0E9FF05C0F3FF0650E9EC03F0046E38
:1005D0000450D5E1E4CF06F0E4CF05F0E4CF04F019
:1005E000E4CF03F0E4CF02F0E4CF01F0E4CF00F079
:1005F000E4CFD9FF120012EEFEF022EEFEF0F86A10
:10060000A68EA69C280EF66E080EF76E000EF86EEB
:100610000900F5CF05F00900F5CF06F034D0090048
:10062000F5CF00F00900F5CF01F00900F5CF02F099
:1006300009000900F5CFE9FF0900F5CFEAFF09003D
:1006400009000900F5CF03F00900F5CF04F0090017
:100650000900F6CF07F0F7CF08F0F8CF09F000C097
:10066000F6FF01C0F7FF02C0F8FF03D00900F5CF85
:10067000EEFF0306FBE20406F9E207C0F6FF08C03E
:10068000F7FF09C0F8FF0506CAE20606C8E22DEC2E
:1006900002F0FFD7D9CFE5FFE1CFD9FF00C0E5FFDA
:1006A00001C0E5FF02C0E5FF03C0E5FF020EDBCF9E
:1006B00000F0030EDBCF01F0026A036A9EBA0CD091
:1006C0000250001803E10350011801E002D0E86A6B
:1006D00017D0024A032AF2D70401406B416B426BE8
:1006E000436B006AABB4002A0050010A06E0006ABE
:1006F000ABB2002A0050010A02E1AB98AB88AE50C1
:10070000E4CF03F0E4CF02F0E4CF01F0E4CF00F057
:10071000E4CFD9FF1200D9CFE5FFE1CFD9FF00C068
:10072000E5FF01C0E5FF02C0E5FF03C0E5FF020EE3
:10073000DBCF00F0030EDBCF01F0040EDBCF02F0C5
:10074000050EDBCF03F0B79CC00E0014F66E01500F
:10075000F76E0250F86E940E7F6E550E7E6EAA0EE6
:100760007E6E7F82F28EB7ACFED7B79C7F947F9867
:10077000F29EE4CF03F0E4CF02F0E4CF01F0E4CF47
:1007800000F0E4CFD9FF1200D9CFE5FFE1CFD9FFC8
:1007900000C0E5FF020EDBCF00F0ACA2FED700C028
:1007A000ADFFACA2FED7E4CF00F0E4CFD9FF12003A
:1007B000949C948EAC98AC94A796670EAF6EAC8A5E
:1007C000AB8EAB881200426F6F745F312E302E619A
:1007D0000000E8AE04D0F3CFEAFFEE501200E8BC10
:1007E0001EEF04F0E9CFF6FFF3CFF7FFF86E090034
:1007F000F5501200F2CFF6FFF29E7F9E7F9CE9CF6C
:1008000074FFF3CF75FF7F807350F6BEF28E120037
:10081000D9CFE5FFE1CFD9FF9390930ED01200EF2F
:1008200008F0E4CFD9FF12000100360800004004B0
:10083000000005000000000000000000FAEF03F0D7
:020000040030CA
:0400000015586F2000
:020005008991DF
:060008000FC00FE00F40E5
:00000001FF
